:020000040800F2
:1000000018070020650100086D0100086F01000855
:1000100000000000000000000000000000000000E0
:100020000000000000000000000000007101000856
:1000300000000000000000007301000875010008C6
:1000400077010008770100087701000877010008B0
:1000500077010008770100087701000877010008A0
:100060007701000877010008770100087701000890
:100070007701000877010008770100087701000880
:1000800077010008770100087701000829130008AC
:1000900077010008891400084D1D00087701000849
:1000A0007701000877010008770100087701000850
:1000B0007701000877010008D108000877010008DF
:1000C00000F002F800F03EF80CA030C80838241800
:1000D0002D18A246671EAB4654465D46AC4201D180
:1000E00000F030F87E460F3E0FCCB6460126334274
:1000F00000D0FB1AA246AB4633431847E820000065
:1001000008210000103A02D378C878C1FAD8520703
:1001100001D330C830C101D504680C6070470000BD
:100120000023002400250026103A01D378C1FBD813
:10013000520700D330C100D50B6070471FB51FBDFB
:1001400010B510BD00F0DAF81146FFF7F7FF01F027
:100150006DFF00F0F2F803B4FFF7F2FF03BC00F00C
:10016000F9F800000748804707480047FEE7FEE728
:10017000FEE7FEE7FEE7FEE704480549054A064BB1
:1001800070470000C9120008C100000818010020D3
:10019000180700201803002018030020002203097C
:1001A0008B422CD3030A8B4211D300239C464EE092
:1001B00003460B433CD4002243088B4231D303094E
:1001C0008B421CD3030A8B4201D394463FE0C30900
:1001D0008B4201D3CB01C01A524183098B4201D318
:1001E0008B01C01A524143098B4201D34B01C01A03
:1001F000524103098B4201D30B01C01A5241C3087B
:100200008B4201D3CB00C01A524183088B4201D3E9
:100210008B00C01A524143088B4201D34B00C01AD5
:100220005241411A00D201465241104670475DE0EA
:10023000CA0F00D04942031000D34042534000226D
:100240009C4603098B422DD3030A8B4212D3FC2216
:10025000890112BA030A8B420CD3890192118B4295
:1002600008D3890192118B4204D389013AD09211AB
:1002700000E08909C3098B4201D3CB01C01A524166
:1002800083098B4201D38B01C01A524143098B422F
:1002900001D34B01C01A524103098B4201D30B0118
:1002A000C01A5241C3088B4201D3CB00C01A52413D
:1002B00083088B4201D38B00C01A5241D9D2430824
:1002C0008B4201D34B00C01A5241411A00D2014661
:1002D000634652415B10104601D34042002B00D5CB
:1002E0004942704763465B1000D3404201B500208D
:1002F000C046C04602BD704770477047754600F063
:1003000025F8AE46050069465346C008C00085463C
:1003100018B020B5FFF730FF60BC00274908B6468B
:100320000026C0C5C0C5C0C5C0C5C0C5C0C5C0C504
:10033000C0C5403D49008D46704710B50446C046D3
:10034000C0462046FFF707FF10BD00000048704779
:10035000B400002001491820ABBEFEE726000200D1
:100360007047836A0B43836242617047002904D05F
:100370008168012211438160704781680222114324
:1003800081607047002182680123DB071A43826085
:100390000F231B038268D20FD207491C994201D058
:1003A000002AF7D18168002901DB006C704700202A
:1003B000704702460020CB0104D5926801231B063A
:1003C0009A4300E012680A4200D001207047002AD8
:1003D00003D042680A434260704742688A434260E1
:1003E0007047000030B5C268084B1A408C680B6833
:1003F0000D792343CC686D032C4323430C69496971
:1004000023430B431343C36030BD000003D2FFFFFF
:1004100081680422114381607047002101600171ED
:100420008160C1600161416170470000F0B5012643
:1004300076028A1B082410250423B14239D011DC2E
:10044000202930D007DC012928D0042929D0082907
:1004500000D1C560F0BD402927D0FF390139F9D15D
:100460004360F0BD3F214902571A00268A4224D03A
:100470000ADCFF3AFF3A023A1DD0012189028A4282
:10048000EFD186614360F0BD0121C903791A0ED016
:10049000012212049142F6D14560F0BD0849816005
:1004A000F0BDC460F0BD0461F0BD0561F0BD446005
:1004B000F0BD4360F0BD4360F0BD86614360F0BDB8
:1004C0000101010010B501214C06204600F044FE58
:1004D0000021204600F040FE10BD000010B5827AD9
:1004E0000123194691402A4A14681C431460D369B9
:1004F0008B43D361037B002B12D1D3688B43D36032
:10050000C38844881B042343847AE400A41823642A
:10051000838804881B042343847AE400A41863645A
:10052000037B012B12D1D3680B43D360038844882B
:100530001B042343847AE400A41823648388C488BA
:100540001B042343847AE400A4186364C37A002B59
:1005500006D053680B4353600389002B04D006E098
:1005600053688B435360F7E753698B4353610389A7
:10057000012B02D153690B435361407B012802D107
:10058000D0690843D061106840084000106010BD79
:100590000066004010B50246002053690B4212D09D
:1005A000FF2401340B1BA1425AD018DC082943D088
:1005B0000ADC012936D0022939D0042903D1D068B8
:1005C000082100F03FFB10BD10293AD020293DD072
:1005D0004029F8D11069102100F034FB10BD7F21B3
:1005E00009025C1A8B424AD00FDCFF3B013B3CD036
:1005F000FF3BFF3B023B3DD0012189028B42EDD105
:100600009069702100F01EFB10BD0121C903611A21
:1006100021D001231B049942F6D15068102100F02B
:1006200011FB10BD9068184900F00CFB10BDD0689C
:10063000032100F007FB10BDD068102100F002FB81
:1006400010BD1069032100F0FDFA10BD10690821EA
:1006500000F0F8FA10BD5068082100F0F3FA10BD60
:100660009069012100F0EEFA10BD9069022100F0BE
:10067000E9FA10BD9069042100F0E4FA10BD506859
:10068000042100F0DFFA10BD01010100806940067D
:10069000400F00017047002A03D042690A434261BB
:1006A000704742698A4342617047000010B50022DA
:1006B00003680224A3430360036801242343036007
:1006C000384B00E0521C4468E40701D19A42F9D14A
:1006D0004268D2073ED08C798022012C3CD004683D
:1006E00094430460CC794022012C39D004689443AF
:1006F00004600C7A2022012C36D0046894430460F4
:100700004C7A1022012C33D00468944304608C7A14
:100710000822012C30D0046894430460CC7A04226F
:10072000012C2DD00468944304608A78CC78920719
:10073000240622430C79240422434C790988240599
:100740002243491E0A43C261016849084900016009
:1007500000211AE0002010BD046814430460C1E7C2
:10076000046814430460C4E7046814430460C7E7E2
:10077000046814430460CAE7046814430460CDE7C6
:10078000046814430460D0E7491C4268D20701D0D2
:100790009942F9D14068C00701D0002010BD012066
:1007A00010BD0000FFFFFF0030B50B011B18FF3329
:1007B00081331C6B04252C401472002C2AD01C6B36
:1007C000E40854601C6B02252C4054725C6B2407B7
:1007D000240F94725C6B240AD4749C6BD4729C6B4F
:1007E000240A14739C6B240C54739C6B240E947316
:1007F000DC6BD473DC6B240A1474DC6B240C54742F
:10080000DB6B1B0E93742022002907D00169114372
:10081000016130BD1C6B640D1460D3E7C1681143E6
:10082000C16030BD30B50246002093685B010AD438
:100830009068000101D5012005E09068C00001D555
:10084000022000E00420042838D003019A18FF3267
:1008500081321368DB07DB0F13600B7A002B2ED07D
:1008600014684D681C434B7AED002B431C43146005
:100870008B7A1B071B0F8B7253681B091B0153607C
:1008800053688C7A234353608C7BCB7A24062343B2
:100890004C7B0D7B24042D022C43234393608C7CE2
:1008A000CB7B240623434C7C097C240409020C43A3
:1008B0002343D360116801231943116030BD1368CD
:1008C0004C7A23430C88640523431360D0E700006F
:1008D000F0B585B0C44F02213846FFF75BFE002813
:1008E0005AD002213846FFF7A1FD6A46002138465A
:1008F000FFF75AFFBD48012505706846C07CBC4E15
:10090000BC4C00284AD001286FD0022844D1684648
:10091000B949C07A08706846B849007B08706846D3
:10092000417B0807000F002803D02A468240B448C4
:1009300002700809002803D029468140B14801709F
:100940006846807B0007000F002803D029468140BD
:10095000AD4801706846AD49C07B08706846017CAF
:100960000807000F002803D02A468240A8480270DA
:100970000809002802D08540A648057000220221FF
:100980003846FFF788FE01F0C3FA01F0E3FA0122CE
:1009900002213846FFF77FFE05B0F0BD6846007BB8
:1009A0009D4A01026846C07A084310803178CA0621
:1009B00005D59A4A904202D2EF2001403170984FFB
:1009C000387800284DD068469649407B0870FF284B
:1009D0000CD0952804D98021934800F083F917E0C2
:1009E0008021914800F07CF912E076E06846C07BF7
:1009F0008007800F012803D180218B4800F072F915
:100A00006846C07B800703D18021874800F068F9E1
:100A100068468649807B0870FF280ED0202807D2C0
:100A20003878002804D040217F4800F05BF920E0AE
:100A300040217D4800F054F91BE06846C07B000768
:100A4000800F012803D14021774800F04BF9684618
:100A5000C07B0007800F0CD14021734800F040F9A3
:100A600007E04021704800F03BF980216E4800F01B
:100A700037F96846C07B6E498006820F012A00D193
:100A80000D70800F18D1087038706A480570AF205B
:100A90006949400108808021684800F021F93078D8
:100AA000EC2108403070604D4021284600F018F9D4
:100AB0008021284600F014F96846C07B810901298D
:100AC00003D12178402211432170800900D063E7CF
:100AD0002078BF21084020705EE700206946497BEE
:100AE0008A07920F012A00D101200A07920F012ADA
:100AF00001D102221043524AC3071278DB0FD707F5
:100B0000FF0FBB420AD0C30704D0337804273B430E
:100B1000337003E03378FB273B40337002270346F2
:100B20003B403A4093420AD0820704D532780823EA
:100B30001A43327003E03278F7231A403270404A89
:100B400010706846007B8207920F012A03D1227839
:100B500004231A432270820703D12278FB231A4010
:100B600022700007820F012A03D1227808231A433A
:100B70002270800F03D12078F72210402070684641
:100B8000C07A8006820F012A03D1227820231A43DB
:100B90002270800F03D12078DF2210402070880659
:100BA000810F012903D12178102211432170800F78
:100BB00003D12078EF21084020703078410703D519
:100BC00021782943217003E02178490849002170E8
:100BD000000703D5207838432070DDE62078FD211A
:100BE00008402070D8E6000000640040110000209A
:100BF0002300002025000020020000200300002028
:100C00000400002005000020060000200100002054
:100C100007000020080000201600002070170000C8
:100C20000F000020190000200004004818000020D8
:100C30001B000020000000200A00002000080048DF
:100C40001A000020024600200A4200D0012070470E
:100C5000F0B500220325012393400C681C409C4200
:100C60002AD10C79012C01D0022C12D187685400B2
:100C70002E46A640B74387604E79A6408468264337
:100C8000866084889C43848084888B7993401C434D
:100C90008480066853002C469C40A64306600E796B
:100CA00007689E403E430660C668A643C660CC798E
:100CB0009C40C3681C43C460521C102ACBD3F0BDB7
:100CC00010B54B07DB0E9A40C90889000818016A65
:100CD0000F249C40A1430162016A1143016210BDCF
:100CE00001857047816170470449016000210171ED
:100CF000012242718171C17170470000FFFF000045
:100D00000249014808607047CCCC00000030004028
:100D10000249014808607047AAAA0000003000405C
:100D20000149486070470000003000400149886078
:100D30007047000000300040014908607047000023
:100D40000030004010B51748FFF767FB1549102029
:100D50000860154C2046FFF745FB0722012120467D
:100D6000FFF7FFFA2046FFF70DFB01220421204682
:100D7000FFF72DFB0D490C20087002204870012060
:100D80008870084600F0A4F901212046FFF7EEFA2A
:100D900001212046FFF70DFB0028F9D02046FFF780
:100DA00037FB10BD800000200024014038000020E7
:100DB000F8B5294C2046FFF785FB284900258D71A1
:100DC0000126CE710E724D728D72CD728D70CD7006
:100DD00007200871062048710C2008802046FFF784
:100DE00065FC012202212046FFF755FC1C4CA57230
:100DF000E57226731120400120806580FF277F0166
:100E0000A780E580258166732046FFF767FBA67201
:100E1000E57226730520000220806580A780E580AA
:100E2000258166732046FFF759FB0220A072E57208
:100E300026732B20C00120806580A780E580258156
:100E400066732046FFF74AFB06481E210170457075
:100E5000867000F03DF9F8BD006400409800002065
:100E6000A400002038000020F8B53A48FFF73CFF06
:100E7000384C03202071206000256571092021462F
:100E8000C006FFF7E5FE2571FC2020606571012694
:100E9000E67109202146C006FFF7DAFE0720206030
:100EA00021462D48FFF7D4FE302020602B4F2146ED
:100EB0003846FFF7CDFE2671A5718720000220601D
:100EC0006571E57109202146C006FFF7C1FE24487F
:100ED000206021462048FFF7BBFE7F20C001206034
:100EE00021463846FFF7B4FEA67140202060214617
:100EF0003846FFF7ADFE022727710320C0022060AD
:100F00006571E67109202146C006FFF7A1FE0920A0
:100F100004220B21C006FFF7D3FE092004220C2176
:100F2000C006FFF7CDFE2771A671052040032060A3
:100F30006571E57121460848FFF78AFE00220D2100
:100F40000548FFF7BDFE00220F210348FFF7B8FE5A
:100F5000F8BD0000300000200004004800080048F0
:100F6000C05C000010B5FFF7CBFE0848FFF7E4FEB9
:100F70000320FFF7D5FE7D20C000FFF7D7FE044811
:100F8000C1680029FCD1FFF7C3FE10BD5555000014
:100F90000030004070B501214C04204600F0C0F83C
:100FA00001218D04284600F0BBF80121C80400F09F
:100FB000B7F80121022000F0C1F80121080200F079
:100FC000BDF80121880300F0B9F80121480600F0BE
:100FD000B5F80121480200F0CDF80121204600F0CB
:100FE000C9F80121284600F0C5F870BD10B586B0DB
:100FF000032080036A4690800F20000210810020A9
:101000005081908101214902D181102111825082A9
:10101000FF200530D080074C01A9204600F0CCF815
:101020000121204600F0B4F8A115204600F0EEF8AA
:1010300006B010BD0038004070B5FF211F48E031F8
:1010400001811E481E4A2038C2628289012422433F
:1010500082810288224302801A4801817D22194838
:1010600052012038C262828922438281028822434F
:10107000028015480181144864212038C1628189A9
:1010800021438181018821430180104D1520287062
:1010900002266E70AC70284600F01AF816202870F0
:1010A0006C70AC70284600F013F8132028706E7036
:1010B000AC70284600F00CF870BD000020440140E0
:1010C000B80B0000204801402020004038000020DC
:1010D00030B5827801240178002A16D08B080E4A98
:1010E0009B009A1813688907C90EFF258D40AB43F2
:1010F0004578AD072D0E8D401D4315600078C00664
:10110000C00E84400548046030BDC806C00E84404F
:1011100002488030046030BD00E400E000E100E0FF
:10112000054A002903D05169014351617047516953
:10113000814351617047000000100240054A0029B8
:1011400003D0D1690143D1617047D1698143D16135
:101150007047000000100240054A002903D01169C1
:1011600001431161704711698143116170470000AB
:1011700000100240054A002903D0916901439161A2
:1011800070479169814391617047000000100240EF
:101190004022002903D00188114301807047018853
:1011A0009143018070470246002012890A4200D014
:1011B000012070478181704730B50388C1229201B8
:1011C00013400A88CC890D892243CC882C432243C2
:1011D0004C8922438C8922431A4302808288094B1E
:1011E0001A408B88134383800A8A02820288042370
:1011F0009A43498811430180818B034A11408183BE
:1012000030BD0000FFF00000FFF70000064A9142E9
:1012100005D00188FF220132114301807047018807
:101220001140018070470000FFFE00001CB5002344
:1012300001930093224801680122120411430160C6
:1012400051000524240302680A400092019A521CAE
:101250000192009A002A02D1019AA242F3D10168B8
:10126000890302D50121009100E000930099012932
:1012700025D1144911220A604168416041684160EA
:1012800041687F22D20391434160416809221204E0
:101290001143416001680122120611430160016897
:1012A0008901FCD5416889088900416041680222B2
:1012B0001143416041680907890F0229FAD11CBD19
:1012C000001002400020024010B5144801680122BD
:1012D000114301604168124A114041600168114A9E
:1012E000114001600168012292049143016041684C
:1012F0003F22120491434160C16A09090901C16298
:10130000016BFF22543291430163416B490849004C
:10131000416300218160FFF789FF10BD001002408A
:101320000CB8FFF8FFFFF6FEF8B55048018A4908EF
:10133000490001824E4D2878401CC0B22870082810
:1013400001D1002028704B4E2A7830780121C90243
:10135000494C904203D82046FFF7C2FC02E02046E9
:10136000FFF7C0FC707829780127BF02884205D8B2
:1013700009203946C006FFF7B3FC04E009203946CE
:10138000C006FFF7AFFCB07829780122120388422B
:1013900004D811462046FFF7A3FC03E0114620467F
:1013A000FFF7A0FCF078297801225203884204D884
:1013B00011462046FFF794FC03E011462046FFF754
:1013C00091FC3079297801225202884205D80920FF
:1013D0001146C006FFF784FC04E009201146C00650
:1013E000FFF780FC254E29783078884204D83946AA
:1013F0002046FFF775FC03E039462046FFF772FCF4
:1014000070782A780121C903904204D80920C006C7
:10141000FFF766FC03E00920C006FFF763FC00212C
:101420000022174E2D780127B05CA84203D8384619
:101430009040814303E03B4693400B4399B2521CDA
:1014400092B2102AF0D30F4D2846FFF7B3FE802149
:101450002846FFF7A8FE0128F9D040212046FFF7D3
:1014600041FC40212046FFF73BFCF8BD0020004036
:101470002200002026000020000800482B00002049
:101480003C00002000380040F0B587B0FE48018ADB
:10149000490849000182FD4AFD4910780125401C98
:1014A000C0B21070142804D1002010700878684071
:1014B0000870F84A1078401CC0B21070012827D17B
:1014C00000201070F44A1078030604D400280CD0D1
:1014D000401E107009E0401CC0B2107003071B0FC3
:1014E000082B02D14006400E1070EC4A107803061B
:1014F00004D400280CD0401E107009E0401CC0B27B
:10150000107003071B0F082B02D14006400E10700D
:10151000E34E32780B78002B01D11020824300205B
:10152000E04C29468140114205D0215C082907D2B0
:10153000491C215404E0215C002901D0491E21549A
:10154000401C80B20528ECD3D7480A240457D7485A
:10155000002C0178D64800780DD1CF4A1278002AA5
:1015600009D1002B07D0002805D0D04A082907D27E
:10157000491C117004E0CD4A002901D0491E1170A8
:10158000CC490A27CF57C949002F49780DD1C34A02
:101590001278002A09D1002B07D0002805D0C34AB1
:1015A000082907D2491C517004E0C04A002901D023
:1015B000491E517000210022002C09D1002F07D1B3
:1015C000B54B1B78002B03D1B44B1B78002B23D0D9
:1015D000002821D0B8B2B14B1B78002B01D01807DE
:1015E000000F0123DB0301E05208D2180746401E1A
:1015F00080B2002FF8D1A0B2A74B1B78002B05D0EA
:101600001807000F02E04900491C89B20346401E3A
:1016100080B2002BF7D111430020A74B2A4682400D
:101620000A4205D01A5C082A07D2521C1A5404E058
:101630001A5C002A01D0521E1A54401C80B2102895
:10164000ECD39E489E4F00789E4C010739D0C107CD
:1016500019D041070AD5398A4A072146097802D4A8
:101660002943217002E049084900217001070AD589
:10167000398A490704D4217849084900217002E0D9
:1016800021782943217081071BD541070BD5398A61
:10169000490704D4217802221143217003E0217804
:1016A000FD221140217001070BD5398A490704D466
:1016B0002178FD221140217003E02178022211439C
:1016C0002170010939D0C10619D541060AD5398AD8
:1016D000090703D421782943217003E021784908C0
:1016E0004900217001060AD5398A090704D42178F6
:1016F00049084900217002E02178294321708106C0
:101700001BD541060BD5398A090704D4227802215A
:101710000A43227003E02278FD210A40227000066D
:101720000BD5388A000704D42078FD2108402070AA
:1017300003E020780221084320700020844662489C
:101740000378002B29D0002060490A78294681407F
:101750001142069104D00699194201D001218C460C
:10176000401C80B20728F1D301216046890300287C
:1017700010D0D8060AD52078C00703D05448FFF708
:10178000B1FA0AE05248FFF7ABFA06E05048FFF71B
:10179000A9FA02E04E48FFF7A3FA002084464D481C
:1017A0000378002B2FD0002048490A782946814031
:1017B0001142059104D00599194201D001218C46AE
:1017C000401C80B20728F1D36046002816D0D80606
:1017D0000ED52078C00705D0FF2101313846FFF72C
:1017E00081FA10E0FF2101313846FFF779FA0AE06B
:1017F000FF2101313846FFF775FA04E0FF2101317E
:101800003846FFF76DFA0020844633480278002AF4
:1018100029D000202D490B78294681401942049196
:1018200004D00499114201D001218C46401C80B2A1
:101830000728F1D3012160464902002810D0D006C4
:101840000AD52078C00703D02448FFF74BFA0AE0F6
:101850002248FFF745FA06E02048FFF743FA02E086
:101860001E48FFF73DFA002084461D480278002AF2
:1018700058D0002015490B78294681401942039120
:1018800033D0039911422DE0004401401D00002097
:101890001E00002010000020130000201400002073
:1018A00023000020260000204C0000202B000020F8
:1018B0000F0000205C0000203C00002003000020FE
:1018C000000000481C00002004000020250000202B
:1018D0000004004805000020060000200008004821
:1018E0000700002001D001218C46401C80B207284F
:1018F000C2D3012160460903002810D0D0060AD5C2
:101900002078C00703D0FB48FFF7ECF90AE0F9485C
:10191000FFF7E6F906E0F748FFF7E4F902E0F548DB
:10192000FFF7DEF90022F44800788446002831D021
:101930000020F2490B78029329468140029B0191D5
:10194000194204D001996346194200D00122401C7B
:1019500080B20728F0D3002A17D06046C0060ED503
:101960002078C00705D0FF210131E548FFF7BAF91B
:1019700010E0FF210131E248FFF7B2F90AE0FF2150
:101980000131DF48FFF7AEF904E0FF210131DC4807
:10199000FFF7A6F93C8AFF214C40F0200440D548CF
:1019A000008A0F2250404007400FD54B0443188A4D
:1019B00048403021084000010443D24827460188AE
:1019C0004F400480D048A1060BD5D04909780029A2
:1019D00007D00178042211430170CD4A0021117013
:1019E00003E00178FB2211400170610608D5C74968
:1019F0000978002904D0017808221143017003E01E
:101A00000178F72211400170A10507D5BF49097877
:101A1000002903D001782943017003E001784908C7
:101A200049000170F90510D5E10507D5B9490D70D8
:101A3000B94A00211170B94A117006E0B54A002177
:101A400011703178202211433170E10504D50178FD
:101A500002221143017003E00178FD221140017060
:101A6000B80729D5A00727D5AD480078002823D08E
:101A7000A649087868400870002807D080211846D9
:101A8000FFF730F930782843307015E0A0490D7029
:101A9000AF20A4494001088080211846FFF720F9B3
:101AA0003078EC210840307040219248FFF718F957
:101AB00080219048FFF714F938462040C00712D023
:101AC0009248007800280ED03078022148403070CB
:101AD000810708D58E490D70AF21924A49011180C6
:101AE000EF21084030709049780711D560070FD575
:101AF00088480078002804D087480278521C027079
:101B000006E00878800703D5307804225040307012
:101B1000F80611D5E0060FD57E480078002804D0DD
:101B20007E480178491C017006E00878800603D5DC
:101B30003078082148403070380611D520060FD57E
:101B40007248007800280BD030781021484030705F
:101B5000C00605D56E480570AF2172484901018065
:101B6000307881067DD5DF21084030706A486F4E9D
:101B7000017880256E4C032907D0042925D06D48B3
:101B8000062942D0072965D152E06B4F0820385E04
:101B900038800221795E814205D0091A3046FEF76D
:101BA00007FBB88000E0BE80002202212046FEF73D
:101BB00072FD00F0ADF900F0CDF96048057001222A
:101BC00002212046FEF767FD44E05B4F0820385EA7
:101BD00078800021795E884205D0411A3046FEF7B0
:101BE000E7FAB88000E0BE80002202212046FEF71E
:101BF00052FD00F08DF900F0ADF95048057001225A
:101C000002212046FEF747FD24E007210170002253
:101C100002212046FEF73FFD00F07AF900F09AF924
:101C200046480570012202212046FEF734FD11E0EE
:101C300024210170002202212046FEF72CFD00F035
:101C400067F900F087F93E4805700122022120461D
:101C5000FEF721FD31480078032803D0042840D145
:101C600020E03EE0374F0820385E38800221795E60
:101C7000814205D0091A3046FEF79AFAB88000E092
:101C8000BE80002202212046FEF705FD00F040F94B
:101C900000F060F92A490D70012202212046FEF76A
:101CA000FAFC1EE0274F0820385E78800021795E1C
:101CB000884205D0411A3046FEF77AFAB88000E033
:101CC000BE80002202212046FEF7E5FC00F020F94C
:101CD00000F040F91A490D70012202212046FEF75A
:101CE000DAFC1948816A032251408162FEF790FBB9
:101CF00007B0F0BD000400480800002025000020C7
:101D00000008004820000020240000200F000020D0
:101D1000000000200E0000200C0000200D0000201C
:101D20001B0000200A00002002000020F023000019
:101D300000640040010000204C000020130000203F
:101D4000140000205C00002000240140F8B55E482B
:101D5000018A4908490001825C490878401CC0B2E8
:101D6000087040255A4F00261F281CD10E70594C70
:101D70002078002816D15849888A684088825748B8
:101D80000670574901200870AF205649400108806D
:101D900080215548FEF7A4FF3878EC2108403870C0
:101DA000524806702670FEF7B3FF51480178491C6F
:101DB000017000204F490A78910700D50120D10712
:101DC0000424002900D0204353071021002B00DAFF
:101DD0000843120700D52843474DE872C0203C4A0B
:101DE0001278920700D5C1203C4A1278002A00D010
:101DF00020433B4A1278002A00D0084328732E72F1
:101E000029600220A8723D4F3B493846FEF70AFD83
:101E10003846FEF73BFC36480078C0071AD02E72D1
:101E200018202860AC723648C07AE8723548C07A0B
:101E30002873FF206873A8732F493846FEF7F2FC19
:101E40003846FEF723FC002804D02348818A8022EC
:101E50005140818226480178042933D10670F02050
:101E60001B4909784A0700D5F120090700D520430E
:101E70002E72282129600321A972FF21E97229739A
:101E800068731D493846FEF7CDFC3846FEF7FEFB69
:101E90001D480078002815D0F0201C490978CA0791
:101EA00000D0F120890700D520432E7256212960E9
:101EB0000121A972E87210493846FEF7B3FC384692
:101EC000FEF7E4FBF8BD00000048014012000020CE
:101ED0002300002011000020000400480F00002013
:101EE000000000200A000020000800481B0000201D
:101EF0003B000020240000206C0000200064004013
:101F00004C0000205C000020030000201C0000208A
:101F100010B50E48C168C907FCD1C16820228906E6
:101F2000002900DAC26001690223194301610849EE
:101F300041610169402421430161C168C907FCD1A5
:101F4000C26001699943016110BD00000020024098
:101F50000078000810B53148C168C907FCD1C168D4
:101F60008A062021002A00DAC160026901231A438F
:101F700002612B4C2B4B22881A80C2689206FCD53A
:101F8000C16062889A80C2689206FCD5C160244A0A
:101F9000103214881C81C468A406FCD5C160528824
:101FA0009A81C2689206FCD5C1601F4A54781C828F
:101FB000C468A406FCD5C160D4789C82C468A40619
:101FC000FCD5C16014791C83C468A406FCD5C1602B
:101FD00054799C83C3689B06FCD5C160114C9379EE
:101FE00020342380C3689B06FCD5C1609378A3800E
:101FF000C3689B06FCD5C160D3792381C3689B0667
:10200000FCD5C160127AA281C2689206FCD5C1607B
:10201000016949084900016110BD0000002002402B
:102020004C000020007800080000002008B5FEF7F2
:1020300099FF6449282008800F4610373880C8204F
:10204000488096207880604C072060700020E07007
:1020500020716071A0715E485C4A42605D4A4260D6
:102060005D4A1068431C00D008805068431C00D0B3
:1020700048809068431C00D03880D068431C00D052
:1020800078801069431C00D060705069431C00D0F8
:10209000E0709069431C00D02071D069431C00D0CF
:1020A0006071106A431C00D0A071506A431C00D0BC
:1020B000A070906A431C00D0E071D06A421C00D02E
:1020C0002072404802250026455F865FB54206D053
:1020D000A91B4248FEF76CF83A49888002E039486B
:1020E0003E4981803749022710310020CF5F085ECA
:1020F0000090874208D00098391A3848FEF758F8FF
:1021000030491031888003E02E49344810318880EE
:102110002C48B54207D01920A91B8002FEF748F8C9
:102120002849C88002E019218902C180254D009804
:102130001035874207D00098391A19208002FEF71F
:1021400037F8E88002E019208002E880E078092171
:102150000843E070FF20A07020790421084320711B
:102160006079082108436071A07910210843A071AB
:10217000E07920210843E071207A40210843207251
:10218000FEF708FFFEF770FEFEF730FFFEF7DAFD00
:10219000FEF70EFEFEF750FFAF20400160810121E7
:1021A000217008480022203002720160817261783B
:1021B000C1720B4C01462046FEF734FB2046FEF769
:1021C00065FAFEE74C00002000000020230167456F
:1021D00000200240AB89EFCD00780008F02300001A
:1021E0000064004004220008000000203C000000C1
:1021F00004010008402200083C000020DC0600002A
:1022000020010008000000000000000000000000A5
:1022100000000000000000000000000000000000BE
:1022200000000000000000000000000000000000AE
:10223000000000000000000000000000000000009E
:040000050800016589
:00000001FF
